:020000040800F2
:100000000004002011020008110300081103000879
:100010001103000811030008110300081103000870
:100020001103000811030008110300083103000840
:10003000110300081103000811030008F103000870
:100040001103000811030008110300081103000840
:100050001103000811030008110300081103000830
:10006000110300081103000811030008110F000814
:10007000410F0008710F0008A10F0008D10F000800
:100080000110000831100008511400081103000885
:1000900011030008110300081103000811030008F0
:1000A00011030008110300081103000811030008E0
:1000B0001103000811030008A1170008110300082C
:1000C00011030008110300081103000811030008C0
:1000D000110300081103000851180008110300085B
:1000E00011030008110300081103000811030008A0
:1000F0001103000811030008110300086110000833
:10010000110300081103000811030008110300087F
:10011000110300081103000811030008110300086F
:1001200091100008C1100008F1100008211100080A
:100130005111000811030008110300081103000801
:10014000110300081103000811030008110300083F
:1001500081110008B1110008E11100081103000825
:10016000110300081103000811030008110300081F
:10017000110300081103000811030008110300080F
:1001800011030008110300081103000811030008FF
:1001900011030008110300081103000811030008EF
:0C01A000110300081103000811030008FF
:1001B00008B500F0D5FD00F08BF90B484FF4004175
:1001C0000122044601F05CFA4FF4004648F20005B3
:1001D00025834FF4FA7000F0B3FB66834FF4FA7096
:1001E00000F0AEFBF4E700BF000C0240AFF300806C
:1001F000704700BFAFF30080AFF30080AFF3008023
:10020000FEE700BFAFF30080AFF30080AFF30080E4
:1002100072B6304880F30988022383F31488BFF351
:100220006F8F2D4B2D4A93420BD2D943114421F0AD
:10023000030119444FF05532043B43F8042F8B421D
:10024000FBD1274B83420CD226491A1D891A21F073
:10025000030119444FF05532043B43F8042F8B42FD
:10026000FBD101F08DFB2049204B99420BD2C843B2
:10027000184420F003001E4C04300023E258CA50FA
:1002800004338342FAD11B4B1B4A93420AD2D9430F
:10029000114421F0030119440022043B43F8042FC8
:1002A0008B42FBD1154D164CFFF7A2FFAC4204D296
:1002B00054F8043B9847AC42FAD3124D124CFFF766
:1002C00077FFAC4204D254F8043B9847AC42FAD3CF
:1002D000FFF796FF00080020000000200004002027
:1002E000000400200308002000080020000800206F
:1002F000B01B000800080020F80A0020AC0100082C
:10030000AC010008AC010008AC010008AFF30080AC
:10031000FEE700BFAFF30080AFF30080AFF30080D3
:1003200000F08EFA00DF00BFAFF30080AFF3008073
:10033000EFF30983203383F30988002383F31188C3
:10034000704700BFAFF30080AFF30080AFF30080D1
:1003500008B5094B094A002199600720DA6010218D
:1003600000F08EF80A20202100F08AF80B2080216E
:10037000BDE8084000F084B800ED00E00003FA0595
:10038000202383F31188164B5B6813F4006319D0A4
:10039000EFF309834FF0807243F8042CA3F120029D
:1003A00082F309880F498A690968D07F8968926851
:1003B00058B1914294BF0022012262B10A4A43F827
:1003C000082C704783F311887047914234BF002294
:1003D0000122002AF2D1054A43F8082C704700BFD9
:1003E00000ED00E038090020210300082403000884
:1003F00008B5202383F3118800F09AF8002383F3D3
:100400001188BDE80840FFF7BBBF00BFAFF3008015
:100410002DE9F04FC1F80CD0D0F80CD0BDE8F08F2A
:10042000002383F311882846A04700F0B9FA7047EB
:1004300020F0030202F1604202F56142F0B4430988
:1004400000F00304D2F80053E400FF269B00A6400E
:1004500003F1604325EA060503F561430127A14046
:1004600000F01F0007FA00F045EA0104C2F800435B
:10047000C3F88001F0BC1860704700BFAFF3008084
:1004800020F0030303F1604303F56D4300F0030024
:1004900010B4C0009A69FF24844022EA040281401B
:1004A0000A439A615DF8044B704700BFAFF30080C8
:1004B000024B034A9B699A61FEE700BF380900209E
:1004C000A0190008AFF30080AFF30080AFF3008005
:1004D00000B583B0FFF73CFF00F0DAF800F058F801
:1004E00000F0F6FB00F02CFC40210B4800F0B8F9BE
:1004F0000A49012288610277002383F3118862B6DA
:100500008969074888610093E021064B064800F09E
:10051000CFF903B05DF804FB000800203809002083
:10052000B0190008B104000848080020AFF30080AB
:1005300070B5134B9B69DA7F0AB1013ADA771A6A10
:10054000104C01321A62E36822680133A242E36070
:1005500014D09668013E966086B91168D56821600E
:10056000D66000234C6083F311881069A8472023CC
:1005700083F3118822689368002BEED070BD00BF12
:100580003809002028090020AFF30080AFF3008075
:10059000044B4FF0FF3100225B601B609960DA6012
:1005A000704700BF28090020AFF30080AFF3008040
:1005B00070B40C4E3468A5680361A942C26004D9C6
:1005C0002468491BA5688D42FAD363684360B4422E
:1005D000046060601860816002D0A368591AA1604D
:1005E00070BC704728090020AFF30080AFF3008093
:1005F000074A0368934203D0996882680A449A6064
:1006000042681360036800215A60C160704700BFF0
:1006100028090020AFF30080AFF30080AFF3008023
:1006200010B4202383F31188037F0D2B11D8DFE84A
:1006300003F026101007100B101010101010100BE4
:10064000436A9A6801329A6090E80C001A60026866
:1006500053604FF0FF34002381680C4A44620377F3
:10066000126893688B42FBD251684160026000239C
:100670005060086083F311885DF8044B70470023D5
:1006800083F311885DF8044B704700BF38090020E0
:10069000034B00225B601B605B611B619A607047CB
:1006A00038090020AFF30080AFF30080AFF3008083
:1006B00000228168084B10B4044602771B689A68D0
:1006C0008A42FBD25A686260236020465C601460F4
:1006D0005DF8044B704700BF38090020AFF300807D
:1006E000084B30B41A6899691468087701251420FA
:1006F000C877636015771C60104630BC9A61FFF7BD
:1007000087BE00BF38090020AFF30080AFF3008040
:1007100030B54B1C87B0054611D00C4C0C4AA36970
:1007200001A8FFF745FF2846FFF7DAFF049B13B146
:1007300001A8FFF75DFFA369586A07B030BD034CFD
:10074000FFF7CEFFA369586A07B030BD3809002013
:1007500021060008AFF30080AFF30080AFF3008004
:10076000DFF858C0F0B4DCF818708568BC684162E6
:10077000A54206460DD80022634602771B689A6898
:100780009542FBD95A68726033605E601660F0BCB7
:10079000704700233B7763461B689A689442FBD9F5
:1007A0005A687A6001243B605F601760347739468D
:1007B0003046CCF81860F0BCFFF72ABE380900209C
:1007C0000E4A1068F0B40368956913600127142677
:1007D0000021AC685A60077703469061EE7729776D
:1007E00000E01B689A68A242FBD25A686A602B60DC
:1007F00029465D601560F0BCFFF70ABE380900208D
:100800000D4A106870B403689569136001260021D1
:10081000AC685A60067703469061297700E01B6850
:100820009A68A242FBD85A686A602B6029465D60CC
:10083000156070BCFFF7ECBD38090020AFF30080F5
:10084000034B9B69DB7F0BB1FFF7DABFFFF7B8BF44
:1008500038090020AFF30080AFF30080AFF30080D1
:100860002DE9F003114C016465694561002200F136
:100870002C064FF002094FF0140800F128074FF042
:10088000010C0461816080F81C90606180F81F8019
:1008900080F81EC04277C26382630262826128616F
:1008A00087620663C662BDE8F0037047380900201E
:1008B0002DE9F84F1D460446202383F311881C4E72
:1008C000DFF870B0D6F814E024394718C76000F19B
:1008D0002C03455000F1280C00250A9979604FF04F
:1008E000020A4FF014094FF00108C7F820B029465A
:1008F00082600661C0F814E0026480F81CA080F8F1
:100900001F9080F81E8045777061C563856305621E
:100910008561CEF810000363C362C0F828C0FFF7FA
:100920001FFF2B4683F311882046BDE8F88F00BFD8
:100930003809002021040008AFF30080AFF30080E5
:1009400008B50146202383F311880620FFF7E0FE57
:10095000002383F3118808BDAFF30080AFF300805C
:1009600038B50E4B9C692546606255F8280FA842A1
:1009700006D00368A362FFF79BFEA06AA842F8D1E5
:10098000637F9B0704D1636922691A6122695361FD
:100990000E20BDE83840FFF7A3BE00BF3809002095
:1009A000202383F31188FFF7DBBF00BFAFF3008084
:1009B0000023406000608360704700BFAFF3008099
:1009C00008B5826B037F1143082B81630BD0092B81
:1009D00000D008BD436A19408B42FAD1FFF768FE88
:1009E0000023436208BD436A1942F7D108BD00BF26
:1009F00070B50468A04205460E4608D0201D0BC8FD
:100A00003343E360FFF7DCFF2468A542F6D170BDF5
:100A100010B4024661B1094B9B69586244680D20CD
:100A200083E81400536023605DF8044BFFF770BE49
:100A30004FF0FF305DF8044B704700BF38090020CD
:100A400030B4029C046200250A4485600261406063
:100A5000006041618161C160C36130BC704700BF0B
:100A6000034642698069824210B598681BD0541CC5
:100A700001305C619860117059691A6991420BD21A
:100A8000186898420DD002681A605360FFF710FE94
:100A900000234362184610BD1868DA685A6198420C
:100AA000F1D1002010BD0028E1D06FF0030010BD8F
:100AB00070B520230E46044683F31188C3692BB119
:100AC000984703E0FFF7A4FF002815DBA568204640
:100AD0003146002DF6D0A2692169531C8B4205F1E5
:100AE000FF35A361A56028BFE368107828BFA36124
:100AF000002383F3118870BD2B4683F3118870BDEA
:100B00002DE9F0471E460446D0F81C80202383F3CD
:100B100011884FF0000901EB020A4F1CB8F1000FD9
:100B200005D02046C04702E0FFF772FFF0B9A56884
:100B300020463146002DF7D0A369013D5A1CA26121
:100B4000A5601B7807F8013C2369A2699A4224BF7B
:100B5000E368A361002383F31188574509F1010974
:100B600007D0202383F311880137D7E72B4683F37F
:100B700011884846BDE8F087AFF30080AFF30080EE
:100B800030B4029C04628D18056140600060826090
:100B900041618161C160C36130BC7047AFF30080C7
:100BA000F8B504460F461646202383F3118803E068
:100BB000FFF72EFF002819DBA56820463146002DDF
:100BC000F6D06369013D5A1C6261A5601F702369FC
:100BD00062699A4224BFE3686361E3690BB120460E
:100BE0009847002383F311881846F8BD2B4683F3FA
:100BF0001188F8BDAFF30080AFF30080AFF3008041
:100C000041698269914210B50346816816D018691E
:100C10004C1C511C9C609961814214780BD218685D
:100C2000984206D002681A605360FFF741FD002326
:100C30004362204610BDDA689A61F0E70029E6D0E9
:100C40006FF0020010BD00BFAFF30080AFF3008073
:100C50002DE9F84F9A4604460E461746D0F81C90E8
:100C6000202383F311884FF00008A56806F1010BDB
:100C700020466B1EDDB16269A360531C636133784B
:100C80001370236962699A4224BFE3686361B9F112
:100C9000000F00D0C847002383F31188013F08F1FB
:100CA00001080DD0202383F311885E46DDE720463E
:100CB0005146FFF7ADFE0028D7D02B4683F31188AD
:100CC0004046BDE8F88F00BFAFF30080AFF300806F
:100CD0000548064A0649074B20F0070022F00702A4
:100CE00008601A60704700BFFF0A002000C00120A2
:100CF0005809002054090020AFF30080AFF30080B2
:100D0000202383F31188094A0949136809680730C9
:100D100020F00700C91A88429BBFC018106000204D
:100D20001846002383F31188704700BF580900203C
:100D300054090020AFF30080AFF30080AFF30080D0
:100D4000044B054A1A6003F1100000229A60DA6031
:100D5000FFF72EBE60090020010D0008AFF30080F0
:100D600008B500F07DFA074800F0AAFB00F010F883
:100D700000F026F800F074F800F0BAF8BDE808407A
:100D800000F006BEB01A0008AFF30080AFF3008099
:100D900000F01EBBAFF30080AFF30080AFF3008024
:100DA00000230122027043608360C36003614361DA
:100DB0001830FFF7FDBD00BFAFF30080AFF3008038
:100DC00000F026BDAFF30080AFF30080AFF30080EA
:100DD0000122002302704360704700BFAFF3008020
:100DE0000C30FFF78DBE00BFAFF30080AFF3008083
:100DF0000C304FF0FF33FFF783BE00BFAFF300802E
:100E00003030FFF725BF00BFAFF30080AFF30080A5
:100E100030304FF0FF33FFF71BBF00BFAFF3008050
:100E20000C30FFF745BE00BFAFF30080AFF300808A
:100E30000C304FF0FF31FFF73BBE00BFAFF3008037
:100E40003030FFF7ADBE00BFAFF30080AFF30080DE
:100E500030304FF0FF32FFF7A3BE00BFAFF300808A
:100E600000F07EBDAFF30080AFF30080AFF30080F1
:100E700070B50E4B044682B040F8043B0126009446
:100E80000B461546606004F1540104F10C00267213
:100E90001022FFF7D5FD00942B4604F1300004F139
:100EA00064011022FFF76CFE02B070BDD01900087B
:100EB00038B5436904460D463BB1294604F10C00A0
:100EC000FFF7CEFD00280BDB38BD04300421FFF70F
:100ED0008FFD294604F10C00FFF7C2FD0028F3DA6C
:100EE000201D8021BDE83840FFF782BDAFF30080B0
:100EF00000F02EBCAFF30080AFF30080AFF30080B2
:100F0000002301220270436083600C30FFF750BD64
:100F100008B5074B074A196801F03D01996013684D
:100F20000BB150689847BDE80840FFF729BA00BFE9
:100F30000060024080090020AFF30080AFF3008022
:100F4000084B094819688268890901F03D0110B50C
:100F50008C019C600AB1C0689047BDE81040FFF763
:100F60000FBA00BF0060024080090020AFF300808C
:100F7000084B094819680269090C01F03D0110B5D8
:100F80000C049C600AB140699047BDE81040FFF72F
:100F9000F7B900BF0060024080090020AFF3008075
:100FA000084B094819688269890D01F03D0110B5A7
:100FB0008C059C600AB1C0699047BDE81040FFF7FE
:100FC000DFB900BF0060024080090020AFF300805D
:100FD00008B5074B07485968026A01F03D01D9601E
:100FE0000AB1406A9047BDE80840FFF7C9B900BFA1
:100FF0000060024080090020AFF30080AFF3008062
:10100000084B09485968826A890901F03D0110B509
:101010008C01DC600AB1C06A9047BDE81040FFF760
:10102000AFB900BF0060024080090020AFF300802C
:10103000084B09485968026B090C01F03D0110B5D5
:101040000C04DC600AB1406B9047BDE81040FFF72C
:1010500097B900BF0060024080090020AFF3008014
:10106000084B09485968826B890D01F03D0110B5A4
:101070008C05DC600AB1C06B9047BDE81040FFF7FB
:101080007FB900BF0060024080090020AFF30080FC
:1010900008B5074B07481968026C01F03D019960DB
:1010A0000AB1406C9047BDE80840FFF769B900BF3E
:1010B0000064024080090020AFF30080AFF300809D
:1010C000084B09481968826C890901F03D0110B587
:1010D0008C019C600AB1C06C9047BDE81040FFF7DE
:1010E0004FB900BF0064024080090020AFF30080C8
:1010F000084B09481968026D090C01F03D0110B553
:101100000C049C600AB1406D9047BDE81040FFF7A9
:1011100037B900BF0064024080090020AFF30080AF
:10112000084B09481968826D890D01F03D0110B521
:101130008C059C600AB1C06D9047BDE81040FFF778
:101140001FB900BF0064024080090020AFF3008097
:1011500008B5074B07485968026E01F03D01D96098
:101160000AB1406E9047BDE80840FFF709B900BFDB
:101170000064024080090020AFF30080AFF30080DC
:10118000084B09485968826E890901F03D0110B584
:101190008C01DC600AB1C06E9047BDE81040FFF7DB
:1011A000EFB800BF0064024080090020AFF3008068
:1011B000084B09485968026F090C01F03D0110B550
:1011C0000C04DC600AB1406F9047BDE81040FFF7A7
:1011D000D7B800BF0064024080090020AFF3008050
:1011E000084B09485968826F890D01F03D0110B51F
:1011F0008C05DC600AB1C06F9047BDE81040FFF776
:10120000BFB800BF0064024080090020AFF3008037
:101210000C4B30B400220C4D0C4C1A601146134696
:10122000E8580C33C02B0160A15002F10802F7D13D
:101230000749084A4FF0FF338B6030BCCB609360A6
:10124000D3607047000A0020F019000880090020D0
:101250000060024000640240AFF30080AFF3008002
:10126000214B22491A69DFF894C000224FF0FF3069
:101270002DE9F00118611A615F6958615A611F6AAE
:101280001B4E1C4D1C4C67F080571F621A620727CB
:10129000D3F8248058625A62C1F804C08A600F6093
:1012A000F16841F08071F160296841F00101296025
:1012B000196C41F080511964216841F480712160FA
:1012C000196F01F44071B1F5007F03D04FF4803104
:1012D00019671A67084B5A6822F400725A60BDE811
:1012E000F001FFF795BF00BF0038024010E000E0BA
:1012F000F0ED00E0001000E0007000403F900200C0
:101300002B492C4B4FF080504FF4404208641A6038
:101310000B6843F001030B600B68254A9807FBD567
:101320001168002301F0F9011160114693608B6888
:101330001F4A13F00C0FFAD1136843F48033136083
:1013400011460B681A4A9B03FBD5536F43F0010308
:10135000536711464B6F164A9807FBD5164B5360DF
:101360001368144943F0807313604B685A04FCD52A
:101370000F490B680E4A9B01FBD5104B1049916039
:1013800040F205711960936843F0020393601146BF
:101390008B68074A03F00C03082BF9D1536C43F414
:1013A00080435364536E43F480435366704700BFD9
:1013B000003802400070004008544007003C0240E2
:1013C00000940838AFF30080AFF30080AFF30080E3
:1013D00010B5084C2046FFF7E3FC0749074A084BC5
:1013E000A162E262236312206021BDE81040FFF792
:1013F0001FB800BF040A002000200140801A000826
:10140000162C0200AFF30080AFF30080AFF3008032
:10141000C16A0A68136823F01F0310B413601368CD
:1014200013F00103FBD10C7A826A48683D2101FA6E
:1014300004F40121046053605DF8044B93609160F3
:10144000704700BFAFF30080AFF30080AFF30080C0
:10145000194B1A68002110B51960930627D5174C4F
:10146000E36A1B685B6813B3236903B32046FFF785
:10147000CFFF23699B684BB10522227020460121D2
:1014800098472378052B04BF022323700022226192
:101490000A49202383F31188606928B14FF0FF3394
:1014A00043624A61FFF704F9002383F31188BDE822
:1014B0001040FEF765BF00BF00200140040A002075
:1014C0002DE9F00FDFF8AC91DFF8AC81D9F830B03E
:1014D000DFF8A8C1604F614E614D624C6249634ABA
:1014E00040F2FF1A4BEA0A0BC9F830B0D9F850B0F5
:1014F0004BEA0A0AC9F850A04368C8F80430836868
:10150000C8F80830C368C8F80C300369C8F814304C
:101510004369C8F820308369C8F824300368C8F8E4
:101520000030036ACCF80430436ACCF80830836A90
:10153000CCF80C30C36ACCF81430036BCCF82030F4
:10154000436BCCF82430C369CCF80030C36B7B60AC
:10155000036CBB60436CFB60836C7B61C36C3B6260
:10156000036D7B62836B3B60876D7760C76DB7608F
:10157000076EF760476E7761876E3762C76E776276
:10158000476D3760466F6E60866FAE60C66FEE6007
:10159000D0F880606E61D0F884602E62D0F88860E8
:1015A0006E62066F2E60D0F890506560D0F894504F
:1015B000A560D0F89850E560D0F89C506561D0F8EF
:1015C000A0502562D0F8A4506562D0F88C502560F8
:1015D000D0F8AC404C60D0F8B0408C60D0F8B4404B
:1015E000CC60D0F8B8404C61D0F8BC400C62D0F868
:1015F000C0404C62D0F8A8400C60D0F8C8105160D0
:10160000D0F8CC109160D0F8D010D160D0F8D410C0
:101610005161D0F8D8101162D0F8DC105162D0F8C6
:10162000C4101160124BD0F8E4205A60D0F8E820C2
:101630009A60D0F8EC20DA60D0F8F0205A61D0F847
:10164000F4201A62D0F8F8205A62D0F8E0201A602C
:10165000BDE8F00F704700BF00080240000C0240D8
:10166000001002400014024000180240001C02401A
:101670000020024000380240000002400004024006
:101680002DE9F00F002302F00307C2F38006C2F336
:10169000C105C2F341144FF00F09C2F3C3124FF05A
:1016A000010A38E0D0F820B02BEA0C0C4CEA08080C
:1016B000C0F82080D0F804C00AFA03F82CEA080C1D
:1016C0004CEA060CC0F804C04FF0030B4FEA430C81
:1016D000D0F808800BFA0CFC6FEA0C0C0CEA080836
:1016E00048EA0508C0F80880D0F80C800CEA080821
:1016F00048EA0408C0F80C80D0F800800CEA080C16
:101700004CEA070CC0F800C049081AD07600AD00BA
:10171000A400BF00013303F0070C4FEA8C0C11F05A
:10172000010F02FA0CF809FA0CFCEDD0072BB9D91D
:10173000D0F824B02BEA0C0C4CEA0808C0F824803E
:10174000B8E7BDE8F00F7047AFF30080AFF300805B
:1017500010B50A4C0A4B4FF6FF7220461A80FFF76D
:10176000CFFB084B08480949094AE06103F10C0026
:1017700023626062A162E26210BD00BF3C0A0020E9
:10178000380A0020141A0008003800401600010032
:1017900046000100AFF30080AFF30080AFF300809C
:1017A00038B5174D2B691A69DC681440A4B2E2B24F
:1017B000D2431A61A3071ED4600717D4210710D49F
:1017C000E20609D4E30703D56B680D489B68984788
:1017D000BDE83840FEF7D4BD6B6809489B6A98475E
:1017E000F0E76B6806481B6A9847E9E76B680448AE
:1017F0009B699847E2E76B6828461B699847DBE7D7
:101800006C0A0020AFF30080AFF30080AFF30080DC
:1018100010B5034C2046FFF7DBFA024B236110BDE5
:101820006C0A002000080040AFF30080AFF3008096
:10183000034B9A8992B242F080029A81704700BFAE
:1018400000440040AFF30080AFF30080AFF30080AE
:10185000F8B53E4E756FAF892C88A4B2E005BFB2D3
:1018600045D4202383F31188A10621D508E0A98857
:101870003648C9B2FFF71CFB2C88A4B2A00617D5C6
:101880002207F4D014F0080F14BF8021002114F0B7
:10189000010F18BF41F02001A30748BF41F04001EC
:1018A00064072B4848BF41F48071FFF7A1F8DEE7D9
:1018B000002383F31188390601D5220626D4630656
:1018C00011D5202383F31188726CB36C1F489A42A0
:1018D0002AD027F04007BFB24FF6BF72AF81002376
:1018E0002A8083F31188BDE8F840FEF749BD202324
:1018F00083F311884FF40071301DFFF779F800234E
:1019000083F311884FF6FF632B80AAE7202383F32C
:1019100011881048FFF774F900280DDB80B2A88009
:10192000002383F31188CAE7836B002BD1D00430E6
:101930001021FFF75DF8CCE705480821FFF758F8BC
:1019400027F0C00343F04003AB81E9E7800A0020A1
:10195000840A0020B00A0020AFF30080AFF30080BB
:1019600010B5044C044A20460021FFF781FA034BCE
:10197000636710BD800A0020311800080044004051
:10198000FFF7BEBCAFF30080AFF30080AFF3008081
:10199000704700BFAFF30080AFF30080AFF300806B
:1019A00069646C6500000000000000000000000099
:1019B0006D61696E00168511040448080C10141836
:1019C000001C1D1E1F200000000000000000000081
:1019D000110E0008F10D0008510E0008310E00082C
:1019E000410E0008210E0008010E0008E10D00085C
:1019F000106002400860024000000B0028600240B6
:101A00000860024006010C0040600240086002408D
:101A100010020D00586002400860024016030E00DC
:101A2000706002400C60024000040F0088600240B9
:101A30000C60024006051000A06002400C600240ED
:101A400010061100B86002400C60024016072F001B
:101A50001064024008640240000838002864024014
:101A600008640240060939004064024008640240EC
:101A7000100A3A005864024008640240160B3B000A
:101A8000706402400C640240000C3C008864024018
:101A90000C640240060D4400A06402400C64024045
:101AA000100E4500B86402400C640240160F460058
:101AB00000AAA02A00000000FFABFFFF5400014075
:101AC000FFFF00000000565500AA0A008020080011
:101AD00040020000FFFFFFFF15455155FFFF0000CA
:101AE000000000044000000001802002000000000F
:101AF000FFFFFFFF54154554FFFF0000000000608A
:101B0000000606000001005500000000FFFFFFFF77
:101B100055505500FF0F00000000000000000000BD
:101B20004000000000000000FFFFFFFF0000000079
:101B3000FFFF0000000000000000000000000000A7
:101B400000000000FFFFFFFF00000000FFFF00009B
:101B50000000000000000000000000000000000085
:101B6000FFFFFFFF00000000FFFF0000000000007B
:101B7000000000000000000000000000FFFFFFFF69
:101B800000000000FFFF0000000000000000000057
:101B90000000000000000000FFFFFFFF0000000049
:0C1BA000FFFF000000000000000000003B
:0400000508000211DC
:00000001FF
